:1000000015C185C22EC12DC12CC12BC12AC129C148
:1000100028C127C126C125C124C123C122C121C1B4
:1000200020C11FC11EC1040309041803720061002E
:10003000700068006E00650074002E006E006500A0
:1000400074000A033100300030003000050109055A
:10005000A1010901A10009300931150026FF007531
:100060000895028102C0050919012908150025011A
:10007000750195088102C005010902A1010901A1CC
:100080000005091901290215002501950275018154
:100090000295017506810305010930093115812595
:1000A0007F750895028106C0C012010101000000A1
:1000B000088117970A07010102030105010905A13B
:1000C000010901A10009300931150026FF0075085A
:1000D00095028102C0050919012904150025017541
:1000E0000195048102750195048103C0120101018B
:1000F000000000088117990A0701010000010501AD
:100100000905A1010901A10009300931150026FFE7
:1001100000750895028102C005091901290815001A
:100120002501750195088102C0120101010000003E
:10013000088117960A07010102030105010905A1BB
:10014000010901A10009300931150026FF007508D9
:1001500095028102C00509190129081500250175BC
:100160000195088102C005010904A1010901A1004E
:10017000850109300931150026FF007508950281B7
:100180000205091901290815002501750195088145
:1001900002C0C005010904A1010901A100850209ED
:1001A000300931150026FF00750895028102050906
:1001B0001901290815002501750195088102C0C0A3
:1001C00005010904A1010901A100850309300931D4
:1001D000150026FF007508950281020509190129FD
:1001E0000815002501750195088102C0C0050109A7
:1001F00004A1010901A10085040930093115002677
:10020000FF007508950281020509190129081500EA
:100210002501750195088102C0C01201010100008D
:10022000000881179D0A07010102030111241FBE66
:10023000CFE5D4E0DEBFCDBF11E0A0E6B0E0E0EC5A
:10024000F8E102C005900D92A236B107D9F711E08E
:10025000A2E6B1E001C01D92A03FB107E1F737D39C
:100260002DCBCECE85B7836085BF8BB780648BBF27
:1002700083EC8093C60108950F931F93CF93DF9370
:100280009091D60119160CF0A6C02091D30180914F
:10029000D2018D3209F095C08AE5809361009B30D0
:1002A00009F08FC0CCE0D0E0C21BD109C652DE4FAE
:1002B0008881807609F077C01092C40189818823F3
:1002C00051F41092C50184EC91E09093D501809394
:1002D000D40132E06BC0853021F48A818093D7014C
:1002E00060C0863009F043C08B818130E1F18230FB
:1002F00019F4CE016FD259C0833049F58A81882321
:1003000041F486E290E09093D5018093D40134E0EB
:1003100050C0813041F48AE290E09093D5018093FF
:10032000D40138E146C0823041F483E690E09093F6
:10033000D5018093D40134E239C08330C9F582E419
:1003400090E09093D5018093D4013CE032C081329B
:1003500041F485E791E09093D5018093D40139E091
:1003600028C0823229F5CE0135D2382F22C08830FC
:1003700019F489ED91E00AC0893021F48A818093D3
:10038000D9010FC08A3041F484EC91E09093D501FB
:100390008093D40131E00AC08B3019F483EC809350
:1003A000C60130E003C0CE0143D2382F20E802C09E
:1003B00030E020EC8F81882339F48E81831728F078
:1003C00003C080E020E801C0832F20936201809366
:1003D00060001092D6018091610084FF49C0809135
:1003E00060008F3F09F444C0182F893008F018E0EE
:1003F000811B809360008091620180FD02C00BE44C
:1004000001C003EC8F5F809362012091D401309191
:10041000D50186FD05C0D901912FECEBF1E011C0AB
:10042000ACEBB1E080E090E006C0F901E80FF91F05
:10043000E491ED9301961817C1F705C08D91819352
:1004400091509923D9F7F901E10FF11DF093D501EE
:10045000E093D401612F8CEB91E055D0183019F066
:100460008FEF809360000093BB011C5F10936100CD
:100470009AE080B3857031F49150D9F71092D7018A
:100480001092D101DF91CF911F910F9108951F9389
:10049000DC01162F8091620084FF0AC08091C601A2
:1004A00098E889278093C601912FE7ECF1E007C017
:1004B0008AE580936200F8CF8D91819391509923C2
:1004C000D9F7612F87EC91E01ED01C5F109362007A
:1004D0001F910895A82FB92F8FEF9FEF41E050EAA9
:1004E000615070F02D9138E0722F7827969587959E
:1004F000269570FF02C0842795273A95A9F7F0CF7B
:10050000809590950895E6DF8D939D930895CF9300
:10051000CFB7CF93809BFECF809B09C0809B07C045
:10052000809B05C0809B03C0809B01C09EC0DF9361
:10053000C091D301DD27C652DE4F809B02C0DF9100
:10054000EBCF2F930F931F9300B32FEF00FB20F9F6
:100550004F933F9310B34FEF012700FB21F93BE08E
:1005600031C04E7F012F10B3216028C0102F4D7F66
:100570002260000000B329C04B7F2460012F0000DF
:1005800010B32BC010B3477F28602AC04F7E00B342
:1005900020612CC04F7D10B320622FC04F7B00B371
:1005A000206432C0422700B349934FEF0000102768
:1005B00010FB20F910B31570A9F1297F91F20127E2
:1005C00000FB21F900B3237F89F23150F0F11027AD
:1005D00010FB22F910B3277E79F2012700FB23F9E3
:1005E0002F7C81F200B3102710FB24F92F7971F2D0
:1005F00000C010B3012700FB25F92F7359F200C08A
:1006000000B3102710FB26F9223040F200C010B3CF
:10061000012700FB27F9243028F64F77206810B314
:100620000000F9CF3B503195333010E41ABFB8F0D9
:10063000C31BD0400881033C41F10B3431F11981D7
:10064000412F1F772091D101121731F4093691F112
:100650000D3279F0013E69F022272093D8013F91B5
:100660004F911F910F912F91DF91CF91CFBFCF91DC
:1006700018950093D8013F914F911F910F912F91A1
:10068000DF91CAB7C6FD46CFF0CF0091D801002355
:1006900031F31091D6011123A1F53430A2F130933A
:1006A000D6010093D2011091D3013BE0311B30936E
:1006B000D30129C00091D60101301CF50AE547FDA0
:1006C00009C03091610034FD20C000936100CBEB84
:1006D000D1E01FC03091620034FD17C0009362006A
:1006E000C6ECD1E016C0052710E002BB1FC00527ED
:1006F00022C0052727C005272CC0052710E002BB14
:1007000033C04AE503C042ED01C0432FC4E1D0E04D
:1007100032E011B31560909A02B311BB5F9355E0BC
:1007200020E820FF052702BB279517951C3FD8F628
:1007300020FF0527279502BB17951C3FC0F620FF19
:1007400005272795179502BB1C3F98F620FF052724
:10075000279517951C3F02BB70F600C0499120FFFA
:10076000052702BB279517951C3F38F620FF052764
:10077000279502BB17951C3F38F520FF05272795C5
:10078000179502BB1C3F10F520FF052727951795ED
:100790001C3F02BBE8F4242F3A9519F60A7F5F91BB
:1007A00002BB00C01091D701C651D04011F0109388
:1007B000D10110E41ABF016011B31A7F402F4A7FA4
:1007C00002BB11BB42BB4BCF0527D3CF0527D8CFE8
:1007D0000527DDCFFC018081807641F5818186305F
:1007E00029F583818230D1F0823269F08130F1F4D1
:1007F00080916701909168019093D5018093D40115
:1008000080916901089580916401909165019093B0
:10081000D5018093D40180916601089585E890E028
:100820009093D5018093D40182E2089580E00895E9
:10083000DC012AE731E03093D5012093D4018C917B
:100840008076803209F041C011968C9111978230E8
:1008500081F08A30F1F08130C1F5E0916A01F091C8
:100860006B010088F189E02D12966C91C901099500
:10087000089512969C91892F8150883030F5892FE8
:1008800090E08F589E4F9093D5018093D40181E0E2
:1008900008951296EC911297EE2359F4E2E7F1E0F5
:1008A00013968C911397819381E0EA37F807C1F78B
:1008B0000CC08E2F8150883040F4F0E0EF58FE4F8E
:1008C00013968C91808380E0089580E008958F9244
:1008D0009F92AF92BF92CF92DF92EF92FF920F93CF
:1008E0001F93DF93CF93CDB7DEB7AA970FB6F894D7
:1008F000DEBF0FBECDBF88E0FE013196DF01982F2D
:100900001D929A95E9F7E2E7F1E0DF011D928A95E1
:10091000E9F7B89A87B3897F87BB88B3866088BBBD
:10092000C09880E395E70197F1F786B390E0867071
:100930009070959587958230910541F183309105AE
:1009400039F1019709F199D5FC0190936B018093DE
:100950006A010284F385E02D0995882309F43CC0DF
:10096000DE011996E9ECF0E082E201900D928150EF
:10097000E1F7A3E6B0E0FE01399682E201900D9224
:100980008150E1F70ED724C01BD622C020D420C04E
:1009900041D1FC0190936B0180936A010284F3853D
:1009A000E02D0995DBD18823B9F0DE011996E7EA3D
:1009B000F0E082E201900D928150E1F7A3E6B0E011
:1009C000FE01399682E201900D928150E1F787D3C2
:1009D00090936B0180936A01E0916A01F0916B0141
:1009E00084819581909365018093640182818093D5
:1009F000660180859185009731F09093680180931E
:100A00006701868107C089E291E090936801809335
:100A1000670165D5809369018091660180939E008E
:100A200014BA8FEF85BB88EF82BB85E081BB11BA1A
:100A300083BF8FE085BD84EC83BDE0916A01F091B6
:100A40006B010284F385E02D09950CDC7894FF247A
:100A500011E0882483945E010894A11CB11C91E0EC
:100A6000C92ED12C80E8982E02C0FF2410E0A89552
:100A700003DC112341F0E0916A01F0916B010484E1
:100A8000F585E02D099508B600FE27C088BE409187
:100A90006A0150916B01D50120E030E018C0F901E6
:100AA000EE58FE4FE081EE2379F08C91853018F0FE
:100AB00085508C9309C0EC93C601022E02C0880FAA
:100AC000991F0A94E2F7F82A2F5F3F4F1196FA0117
:100AD000808191812817390714F308B607FE27C0D3
:100AE00098BEE0916A01F0916B010484F585E02DD8
:100AF000099500E010E012C00684F785E02D802FF4
:100B00008F5F0995882341F0C601002E02C0880F2F
:100B1000991F0A94E2F7F82A0F5F1F4FE0916A01CC
:100B2000F0916B0180819181081719072CF3FF2048
:100B300009F49CCF00E010E0EF2CFF24E7FCF094D8
:100B400022C0C701002E02C0959587950A94E2F74E
:100B500080FF17C08091620084FF13C0602F6F5F19
:100B60000088F189E02D8CE691E00995682F8CE6EC
:100B700091E08DDC02C080DBA8958091620084FF4B
:100B8000FACF0F5F1F4FE0916A01F0916B018081F6
:100B9000918108171907ACF268CFAC9A80E38A9567
:100BA000F1F7AC9880E090E030E048E1242F2A95FE
:100BB000F1F7AD98330F9B9B3160242F2A95F1F705
:100BC000AD9A01968830910589F73093810180E0D4
:100BD00090E048E1242F2A95F1F7AD9836959B9B3C
:100BE0003068242F2A95F1F7AD9A01968830910547
:100BF00089F73093820108951F931FB7F894A49A40
:100C0000A59AA398AB9AAD9AAC98C7DF1FBF80E0B6
:100C10001F9108958CE490E09093F0008093EF0092
:100C20008BEE90E00895FC01009709F453C0A09169
:100C3000810180918201682F70E0CB01807F9070EC
:100C4000803F910521F481E08093800102C01092E1
:100C500080014A2F50E0A0FD03C020E830E002C030
:100C60002FEF30E041FF02C020E030E042FD03C042
:100C700080E890E002C08FEF90E043FF02C080E088
:100C800090E020838183CA018074907025E095955F
:100C900087952A95E1F79A0120723070B3E0359577
:100CA0002795BA95E1F7982F922BAA1FAA27AA1F7A
:100CB0009A2B4071507055954795942B9283809153
:100CC0008001882339F484E0660F771F8A95E1F765
:100CD000962B92838091810190918201909384015F
:100CE0008093830183E008958091FD009091FE0040
:100CF000892B31F01092FE001092FD0081E00895E2
:100D000042E050E063E871E081E891E0CAD50895DF
:100D1000FC01AC9A80E38A95F1F7AC9890E028E169
:100D2000822F8A95F1F7AD98822F8A95F1F7AD9AC7
:100D30009F5F9830A9F7908120E038E1832F8A9552
:100D4000F1F7AD98990F9B9B9160832F8A95F1F7EE
:100D5000AD9A2F5F283091F790830895DF93CF935A
:100D60000F92CDB7DEB7CE010196D2DF90E0898138
:100D70008F70813009F491E0892F0F90CF91DF912E
:100D800008956F927F928F929F92AF92BF92CF926F
:100D9000DF92EF92FF920F931F93DF93CF930F9207
:100DA000CDB7DEB773E0E72EF12CE822F92206E09A
:100DB00010E04E010894811C911C68EBA62E6BE09C
:100DC000B62E54E0752E40E3642E30E8C32E3BEB84
:100DD000D32EC4019DDF898190E08073907024E060
:100DE000959587952A95E1F78E159F0529F4F09240
:100DF0008E01E0928D011CC0C5010197F1F780E0E2
:100E000090E0AC9A272D2A95F1F7AD98AD9A272D51
:100E10002A95F1F7AC98262D2A95F1F701968F3196
:100E2000910579F7C6010197F1F70150104089F655
:100E30000F90CF91DF911F910F91FF90EF90DF9076
:100E4000CF90BF90AF909F908F907F906F900895BC
:100E5000DF93CF930F92CDB7DEB7CE01019658DF67
:100E60002981822F8F70813079F580918B0190914B
:100E70008C01892B71F52295269526952370822F5A
:100E800090E08130910571F0823091051CF4892B3E
:100E900079F013C08230910541F0039771F480E03E
:100EA00090E00AC081E090E007C082E090E069DF56
:100EB00080918D0190918E0164DFCE01019628DF33
:100EC00089818F70813029F010928C0110928B01F2
:100ED00056C081E090E090938C0180938B018981D2
:100EE00080938F0180E797E10197F1F78CED95E012
:100EF0000197F1F780E090E050E030E2232F2A954F
:100F0000F1F7AD98550F9B9B51600000AD9A01968B
:100F10008830910599F780E090E030E040E2242F9E
:100F20002A95F1F7AD98330F9B9B31600000AD9A85
:100F300001968830910599F7232F2F77452F4F770A
:100F400037FD219557FD4195332727FD3095809139
:100F5000850190918601820F931F90938601809363
:100F60008501242F332727FD3095809187019091AB
:100F70008801820F931F90938801809387010F90BF
:100F8000CF91DF910895A49AA59AA398AB9AAD9AB0
:100F9000AC985EDF80918F018295869586958370EF
:100FA00090E08130910571F0823091051CF4892B1D
:100FB00031F00EC08230910541F0039749F480E092
:100FC00090E005C081E090E002C082E090E0D9DED0
:100FD00080E008958091110190911201892B29F0F0
:100FE00010921201109211011DC090918F018091F9
:100FF00090019817B9F42091850130918601809174
:101000009101909192012817390761F440E02091F5
:101010008701309188018091930190919401281764
:10102000390709F041E0842F0895FC01009709F485
:1010300054C08091890190918A01892B41F01082DE
:101040001182128210928A011092890146C0A091E9
:101050008F018A2F82958695869583708083609113
:101060008501709186018FEF6138780714F481E86B
:1010700006C06038710514F08FE701C0862F4091DB
:101080008701509188019FEF4138590714F421E8F6
:1010900006C04038510514F02FE701C0242F81838A
:1010A0002283992787FD90959093920180939101D7
:1010B000332727FD30953093940120939301A0931B
:1010C0009001681B790B7093860160938501421B28
:1010D000530B509388014093870183E0089587E77D
:1010E00090E0909304018093030189EA90E090934B
:1010F0000801809307018FEF90E00895A49AA59AC4
:10110000A398AB9AAD9AAC9880E00895AC9A80E32E
:101110008A95F1F7AC9880E090E030E048E1242F28
:101120002A95F1F7AD98330F9B9B3160242F2A95B8
:10113000F1F7AD9A01968830910589F730939501C2
:1011400008958091950190919601891B0895FC0165
:101150000097B9F160919501462F50E060FD03C002
:1011600020E830E002C02FEF30E041FF02C020E075
:1011700030E042FD03C080E890E002C08FEF90E0D5
:1011800043FF02C080E090E0208381839A012074B5
:10119000307075E0359527957A95E1F7CA01807230
:1011A000907033E0959587953A95E1F7282B661F67
:1011B0006627661F262B4071507055954795242B46
:1011C0002283809195018093960183E008958BEBB3
:1011D00090E090931801809317018CEE90E090932B
:1011E0001C0180931B0183E191E0089543B366B332
:1011F00050E0CA0180719070F3E095958795FA955B
:10120000E1F79A012870307035952795822B60722E
:10121000862B9A0124703070220F331F822B9A0183
:101220002270307063E0220F331F6A95E1F7822B42
:101230004072507095E0559547959A95E1F7842B4B
:101240000895DF92EF92FF920F931F93CF93DF9356
:10125000EC01A89A00E5802F8A95F1F7C7DFD82E18
:1012600080913901823028F4D8828FEF89838A8374
:1012700029C0A898802F8A95F1F7B8DFF82EA89A90
:10128000802F8A95F1F7A898802F8A95F1F7AEDF25
:10129000E82EA89A802F8A95F1F7A898802F8A9532
:1012A000F1F7A4DF182FA89A802F8A95F1F79EDF17
:1012B000A898902F9A95F1F7A89AD882F9828A83F4
:1012C000EB821C83DF91CF911F910F91FF90EF90E4
:1012D000DF900895DF93CF9300D000D00F92CDB769
:1012E000DEB7CE010196ADDF998190958A81809518
:1012F0008A836B81609590FD03C040E850E002C096
:1013000040E050E091FF02C04FEF50E092FD03C07B
:1013100020E830E002C020E030E093FF02C02FEF71
:1013200030E02093970140939801109299013091F9
:1013300039013230D0F18A81282F84FF03C081E047
:101340008093990194FF05C08091990182608093F8
:10135000990195FF05C0809199018460809399015E
:1013600025FF05C0809199018860809399013330F1
:1013700041F5962F62FF05C08091990180618093AD
:10138000990191FF05C08091990180628093990134
:1013900090FF05C08091990180648093990193FF2B
:1013A00010C08091990180680AC094FF03C081E059
:1013B0008093990195FF05C0809199018260809387
:1013C00099010F900F900F900F900F90CF91DF9198
:1013D00008951F93DF93CF9300D000D00F92CDB725
:1013E000DEB71FB7F894B99AC198BD98C59AA09A6C
:1013F000A89A84B3817C84BB85B38E6385BB88EE59
:1014000093E02CE231E0F9013197F1F70197D9F738
:10141000CE01019616DF81E080933901898190E049
:101420008F7090708330910519F41FBF8FEF1CC02F
:101430000F9789F48A818F70833069F48C818F7063
:10144000833021F48D818F70833011F083E001C0EF
:1014500082E0809339018A8185FD03C083E0809317
:10146000390138DF1FBF80E00F900F900F900F9071
:101470000F90CF91DF911F9108958EEF90E09093A0
:101480002A018093290185E291E00895009741F0B7
:10149000DC01E7E9F1E083E001900D928150E1F792
:1014A000AAE9B1E0E7E9F1E083E001900D92815013
:1014B000E1F783E008958091370190913801892BFD
:1014C00031F0109238011092370181E0089543E025
:1014D00050E06AE971E087E991E0E3D1089582E1A3
:1014E00090E00895A89888EB9BE0FC013197F1F714
:1014F000A99AFC013197F1F723B3A9980197F1F765
:1015000083B3A89A90E08C739070880F991F880F0E
:10151000991F30E02C7330703595279535952795B8
:10152000822B8095982F83FD03C040E850E002C0D5
:1015300040E050E091FF02C04FEF50E090FD03C04B
:1015400020E830E002C020E030E092FF02C02FEF40
:1015500030E020939D0140939E0110929F0187FFF0
:1015600003C081E080939F0196FF05C080919F0199
:10157000826080939F0195FF05C080919F018460E8
:1015800080939F0194FF05C080919F0188608093A4
:101590009F0108951F931FB7F894B99AC19884B317
:1015A000837C84BB85B38C6385BB85B3836085BB3B
:1015B00084B3836084BB96DF1FBF80E01F910895D2
:1015C0008BE391E090933F0180933E018AE391E0A9
:1015D0000895009741F0DC01EDE9F1E083E001902E
:1015E0000D928150E1F7A0EAB1E0EDE9F1E083E08E
:1015F00001900D928150E1F783E0089580914C01B4
:1016000090914D01892B31F010924D0110924C01B7
:1016100081E0089543E050E060EA71E08DE991E0F7
:1016200040D108958FB7F894B99AC198BD9AC59AD8
:10163000A09AA89A94B3917C94BB95B39E6395BBF2
:101640008FBF80E008958F929F92AF92BF92CF920A
:10165000DF92EF92FF920F931F93DF93CF93CDB75B
:10166000DEB762970FB6F894DEBF0FBECDBFA89865
:101670008CE291E00197F1F760E070E0DE011196F5
:101680001FE060FF04C0C59A999BFECF03C0C598B8
:101690009999FECF43B350E09A0128703070359588
:1016A0002795CA0180719070F3E095958795FA951A
:1016B000E1F7282BCA0184709070880F991F282B9E
:1016C0004072507035E0559547953A95E1F7242BD7
:1016D000FD01E60FF71F212720836F5F7F4F6231E7
:1016E000710579F6C59AA89A89818F3009F046C0AC
:1016F0008A818F3009F042C093E0E92EF12CEC0E84
:10170000FD1E26E030E0CC24DD244E010894811C2F
:10171000911C87E0A82EB12CAC0EBD1ED7018C9178
:101720008E3019F08F3021F406C063E070E005C000
:1017300060E070E002C062E070E08401020F131FFD
:10174000F601ED55FE4F40E050E006C0D8018D9106
:101750008D0181934F5F5F4FDA01A20FB31F4617D0
:101760005707A4F30894E11CF11CE3E0F0E0CE0E6F
:10177000DF1EEA14FB0411F09D01D0CF62960FB674
:10178000F894DEBF0FBECDBFCF91DF911F910F91B7
:10179000FF90EF90DF90CF90BF90AF909F908F9091
:1017A000089586E691E090935301809352018AE177
:1017B00092E090935701809356018EE491E0089552
:1017C0000F931F93CF93DF938C01662311F480E076
:1017D00048C083E06802C00111240397EC01CD5595
:1017E000DE4FDC01A155BE4FFE0183E001900D925A
:1017F0008150E1F7888180FD03C0E0E8F0E002C09D
:10180000E0E0F0E081FF02C0EFEFF0E082FD03C016
:1018100040E850E002C040E050E083FF02C04FEFDC
:1018200050E0898180FD02C020E001C022E081FDFE
:10183000246082FD216083FD28608A8180FD206410
:1018400081FD206282FD206183FD2068D8016C93B8
:1018500011964C9311971296EC93129713962C9322
:1018600084E0DF91CF911F910F910895282F8091EF
:10187000600190916101892B31F010926101109209
:10188000600181E00895215083E02802C001112405
:10189000BC0161557E4F43E050E08D559E4F01D015
:1018A0000895FB01DC0104C08D910190801921F4A1
:1018B00041505040C8F7881B990B0895F894FFCF0A
:1018C000FF5A5A22032800530029004E00450053B6
:1018D000002F00410074006100720069005F005534
:1018E0000053004200090222000101008032090475
:1018F0000000010300000009210101000122000095
:101900000705810308000A220353004E00450053D7
:10191000004D006F007500730065005F0074006F7C
:10192000005F00550053004200220353006500672A
:101930000061004D0075006C007400690074006166
:101940000070005F0055005300420001002B0000B2
:101950000000000000FC05CD05740613060100011F
:10196000003200000012000000C3072807EA071534
:10197000080100010031000000120000007E08860E
:1019800008A108A70801002B00000000000000E9E2
:10199000096A095B0A460A01000201002B000000E7
:1019A00000000000CA0A720AFE0AE90A01000400E7
:1019B000B400000012000000120B230B360CE00BE9
:0219C000010024
:00000001FF
